{
  "contractName": "CompoundLonging",
  "abi": [
    {
      "inputs": [],
      "stateMutability": "nonpayable",
      "type": "constructor"
    },
    {
      "inputs": [],
      "name": "TokenSupply",
      "outputs": [
        {
          "internalType": "contract IERC20",
          "name": "",
          "type": "address"
        }
      ],
      "stateMutability": "view",
      "type": "function"
    },
    {
      "inputs": [],
      "name": "cEth",
      "outputs": [
        {
          "internalType": "contract CEth",
          "name": "",
          "type": "address"
        }
      ],
      "stateMutability": "view",
      "type": "function"
    },
    {
      "inputs": [],
      "name": "cTokenBorrow",
      "outputs": [
        {
          "internalType": "contract CErc20",
          "name": "",
          "type": "address"
        }
      ],
      "stateMutability": "view",
      "type": "function"
    },
    {
      "inputs": [],
      "name": "cTokenSupply",
      "outputs": [
        {
          "internalType": "contract CErc20",
          "name": "",
          "type": "address"
        }
      ],
      "stateMutability": "view",
      "type": "function"
    },
    {
      "inputs": [],
      "name": "comptroller",
      "outputs": [
        {
          "internalType": "contract Comptroller",
          "name": "",
          "type": "address"
        }
      ],
      "stateMutability": "view",
      "type": "function"
    },
    {
      "inputs": [],
      "name": "decimals",
      "outputs": [
        {
          "internalType": "uint256",
          "name": "",
          "type": "uint256"
        }
      ],
      "stateMutability": "view",
      "type": "function"
    },
    {
      "inputs": [],
      "name": "manager",
      "outputs": [
        {
          "internalType": "address",
          "name": "",
          "type": "address"
        }
      ],
      "stateMutability": "view",
      "type": "function"
    },
    {
      "inputs": [],
      "name": "priceFeed",
      "outputs": [
        {
          "internalType": "contract PriceFeed",
          "name": "",
          "type": "address"
        }
      ],
      "stateMutability": "view",
      "type": "function"
    },
    {
      "inputs": [],
      "name": "tokenBorrow",
      "outputs": [
        {
          "internalType": "contract IERC20",
          "name": "",
          "type": "address"
        }
      ],
      "stateMutability": "view",
      "type": "function"
    },
    {
      "stateMutability": "payable",
      "type": "receive"
    },
    {
      "inputs": [
        {
          "internalType": "address",
          "name": "_cTokenToSupply",
          "type": "address"
        },
        {
          "internalType": "address",
          "name": "_TokenToSupply",
          "type": "address"
        },
        {
          "internalType": "address",
          "name": "_cTokenBorrow",
          "type": "address"
        },
        {
          "internalType": "address",
          "name": "_tokenBorrow",
          "type": "address"
        },
        {
          "internalType": "uint256",
          "name": "_decimals",
          "type": "uint256"
        }
      ],
      "name": "initialize",
      "outputs": [],
      "stateMutability": "nonpayable",
      "type": "function"
    },
    {
      "inputs": [],
      "name": "supplyEth",
      "outputs": [],
      "stateMutability": "payable",
      "type": "function"
    },
    {
      "inputs": [
        {
          "internalType": "uint256",
          "name": "_amount",
          "type": "uint256"
        }
      ],
      "name": "supplyToken",
      "outputs": [],
      "stateMutability": "nonpayable",
      "type": "function"
    },
    {
      "inputs": [],
      "name": "getMaxBorrow",
      "outputs": [
        {
          "internalType": "uint256",
          "name": "",
          "type": "uint256"
        }
      ],
      "stateMutability": "view",
      "type": "function"
    },
    {
      "inputs": [
        {
          "internalType": "uint256",
          "name": "_borrowAmount",
          "type": "uint256"
        }
      ],
      "name": "long",
      "outputs": [],
      "stateMutability": "nonpayable",
      "type": "function"
    },
    {
      "inputs": [],
      "name": "repay",
      "outputs": [],
      "stateMutability": "nonpayable",
      "type": "function"
    },
    {
      "inputs": [],
      "name": "getSuppliedBalance",
      "outputs": [
        {
          "internalType": "uint256",
          "name": "",
          "type": "uint256"
        }
      ],
      "stateMutability": "nonpayable",
      "type": "function"
    },
    {
      "inputs": [],
      "name": "getBorrowBalance",
      "outputs": [
        {
          "internalType": "uint256",
          "name": "",
          "type": "uint256"
        }
      ],
      "stateMutability": "nonpayable",
      "type": "function"
    },
    {
      "inputs": [],
      "name": "getAccountLiquidity",
      "outputs": [
        {
          "internalType": "uint256",
          "name": "liquidity",
          "type": "uint256"
        },
        {
          "internalType": "uint256",
          "name": "shortfall",
          "type": "uint256"
        }
      ],
      "stateMutability": "view",
      "type": "function"
    }
  ],
  "bytecode": "0x6080604052733d9819210a31b4961b30ef54be2aed79b9c9cd3b600760006101000a81548173ffffffffffffffffffffffffffffffffffffffff021916908373ffffffffffffffffffffffffffffffffffffffff16021790555073922018674c12a7f0d394ebeef9b58f186cde13c1600860006101000a81548173ffffffffffffffffffffffffffffffffffffffff021916908373ffffffffffffffffffffffffffffffffffffffff1602179055503480156100ba57600080fd5b5033600060026101000a81548173ffffffffffffffffffffffffffffffffffffffff021916908373ffffffffffffffffffffffffffffffffffffffff160217905550612e2c8061010b6000396000f3fe60806040526004361061010d5760003560e01c8063741bef1a11610095578063ae67d54711610064578063ae67d54714610310578063af833d421461033b578063ca20659114610366578063f7013ef614610391578063fd6bac70146103ba57610114565b8063741bef1a14610266578063929ff15d146102915780639db4bcd6146102bc578063a44026a3146102e557610114565b8063313ce567116100dc578063313ce567146101a3578063402d8883146101ce5780634252b452146101e5578063481c6a75146102105780635fe3b5671461023b57610114565b806305322503146101195780631c4394301461014257806324d6db471461014c5780632fd4cda71461017757610114565b3661011457005b600080fd5b34801561012557600080fd5b50610140600480360381019061013b9190611f75565b6103e5565b005b61014a610527565b005b34801561015857600080fd5b506101616105d7565b60405161016e9190612021565b60405180910390f35b34801561018357600080fd5b5061018c6105fd565b60405161019a92919061204b565b60405180910390f35b3480156101af57600080fd5b506101b86106f7565b6040516101c59190612074565b60405180910390f35b3480156101da57600080fd5b506101e36106fd565b005b3480156101f157600080fd5b506101fa610f95565b6040516102079190612074565b60405180910390f35b34801561021c57600080fd5b50610225611118565b60405161023291906120b0565b60405180910390f35b34801561024757600080fd5b5061025061113e565b60405161025d91906120ec565b60405180910390f35b34801561027257600080fd5b5061027b611164565b6040516102889190612128565b60405180910390f35b34801561029d57600080fd5b506102a661118a565b6040516102b39190612164565b60405180910390f35b3480156102c857600080fd5b506102e360048036038101906102de9190611f75565b6111b0565b005b3480156102f157600080fd5b506102fa611737565b60405161030791906121a0565b60405180910390f35b34801561031c57600080fd5b5061032561175d565b6040516103329190612021565b60405180910390f35b34801561034757600080fd5b50610350611783565b60405161035d9190612074565b60405180910390f35b34801561037257600080fd5b5061037b6119ea565b6040516103889190612074565b60405180910390f35b34801561039d57600080fd5b506103b860048036038101906103b391906121e7565b611a8f565b005b3480156103c657600080fd5b506103cf611d5e565b6040516103dc9190612164565b60405180910390f35b6001808111156103f8576103f7612262565b5b600060019054906101000a900460ff16600181111561041a57610419612262565b5b1461045a576040517f08c379a0000000000000000000000000000000000000000000000000000000008152600401610451906122ee565b60405180910390fd5b600160009054906101000a900473ffffffffffffffffffffffffffffffffffffffff1673ffffffffffffffffffffffffffffffffffffffff1663a0712d68826040518263ffffffff1660e01b81526004016104b59190612074565b6020604051808303816000875af11580156104d4573d6000803e3d6000fd5b505050506040513d601f19601f820116820180604052508101906104f89190612323565b50610524600160009054906101000a900473ffffffffffffffffffffffffffffffffffffffff16611d84565b50565b60018081111561053a57610539612262565b5b600060019054906101000a900460ff16600181111561055c5761055b612262565b5b0361059c576040517f08c379a00000000000000000000000000000000000000000000000000000000081526004016105939061239c565b60405180910390fd5b600560009054906101000a9050506105d5600560009054906101000a900473ffffffffffffffffffffffffffffffffffffffff16611d84565b565b600360009054906101000a900473ffffffffffffffffffffffffffffffffffffffff1681565b6000806000806000600760009054906101000a900473ffffffffffffffffffffffffffffffffffffffff1673ffffffffffffffffffffffffffffffffffffffff16635ec88c79306040518263ffffffff1660e01b815260040161066091906120b0565b606060405180830381865afa15801561067d573d6000803e3d6000fd5b505050506040513d601f19601f820116820180604052508101906106a191906123bc565b925092509250600083146106ea576040517f08c379a00000000000000000000000000000000000000000000000000000000081526004016106e19061245b565b60405180910390fd5b8181945094505050509091565b60065481565b6000600267ffffffffffffffff81111561071a5761071961247b565b5b6040519080825280602002602001820160405280156107485781602001602082028036833780820191505090505b509050600360009054906101000a900473ffffffffffffffffffffffffffffffffffffffff1681600181518110610782576107816124aa565b5b602002602001019073ffffffffffffffffffffffffffffffffffffffff16908173ffffffffffffffffffffffffffffffffffffffff1681525050600060018111156107d0576107cf612262565b5b600060019054906101000a900460ff1660018111156107f2576107f1612262565b5b036108fd5773c02aaa39b223fe8d0a0e5c4f27ead9083c756cc2816000815181106108205761081f6124aa565b5b602002602001019073ffffffffffffffffffffffffffffffffffffffff16908173ffffffffffffffffffffffffffffffffffffffff1681525050737a250d5630b4cf539739df2c5dacb4c659f2488d73ffffffffffffffffffffffffffffffffffffffff16637ff36ab54760018430426040518663ffffffff1660e01b81526004016108af94939291906125d2565b60006040518083038185885af11580156108cd573d6000803e3d6000fd5b50505050506040513d6000823e3d601f19601f820116820180604052508101906108f79190612748565b50610b9f565b6001808111156109105761090f612262565b5b600060019054906101000a900460ff16600181111561093257610931612262565b5b03610b9e57600460009054906101000a900473ffffffffffffffffffffffffffffffffffffffff168160008151811061096e5761096d6124aa565b5b602002602001019073ffffffffffffffffffffffffffffffffffffffff16908173ffffffffffffffffffffffffffffffffffffffff16815250506000600460009054906101000a900473ffffffffffffffffffffffffffffffffffffffff1673ffffffffffffffffffffffffffffffffffffffff166370a08231306040518263ffffffff1660e01b8152600401610a0591906120b0565b602060405180830381865afa158015610a22573d6000803e3d6000fd5b505050506040513d601f19601f82011682018060405250810190610a469190612323565b9050600460009054906101000a900473ffffffffffffffffffffffffffffffffffffffff1673ffffffffffffffffffffffffffffffffffffffff1663095ea7b3737a250d5630b4cf539739df2c5dacb4c659f2488d836040518363ffffffff1660e01b8152600401610ab9929190612791565b6020604051808303816000875af1158015610ad8573d6000803e3d6000fd5b505050506040513d601f19601f82011682018060405250810190610afc91906127f2565b50737a250d5630b4cf539739df2c5dacb4c659f2488d73ffffffffffffffffffffffffffffffffffffffff166338ed17398260018530426040518663ffffffff1660e01b8152600401610b5395949392919061281f565b6000604051808303816000875af1158015610b72573d6000803e3d6000fd5b505050506040513d6000823e3d601f19601f82011682018060405250810190610b9b9190612748565b50505b5b6000600260009054906101000a900473ffffffffffffffffffffffffffffffffffffffff1673ffffffffffffffffffffffffffffffffffffffff166317bfdfbc306040518263ffffffff1660e01b8152600401610bfc91906120b0565b6020604051808303816000875af1158015610c1b573d6000803e3d6000fd5b505050506040513d601f19601f82011682018060405250810190610c3f9190612323565b9050600360009054906101000a900473ffffffffffffffffffffffffffffffffffffffff1673ffffffffffffffffffffffffffffffffffffffff1663095ea7b3600260009054906101000a900473ffffffffffffffffffffffffffffffffffffffff16836040518363ffffffff1660e01b8152600401610cc0929190612791565b6020604051808303816000875af1158015610cdf573d6000803e3d6000fd5b505050506040513d601f19601f82011682018060405250810190610d0391906127f2565b506000600260009054906101000a900473ffffffffffffffffffffffffffffffffffffffff1673ffffffffffffffffffffffffffffffffffffffff16630e752702836040518263ffffffff1660e01b8152600401610d619190612074565b6020604051808303816000875af1158015610d80573d6000803e3d6000fd5b505050506040513d601f19601f82011682018060405250810190610da49190612323565b14610de4576040517f08c379a0000000000000000000000000000000000000000000000000000000008152600401610ddb906128c5565b60405180910390fd5b6000600160009054906101000a900473ffffffffffffffffffffffffffffffffffffffff1673ffffffffffffffffffffffffffffffffffffffff16633af9e669306040518263ffffffff1660e01b8152600401610e4191906120b0565b6020604051808303816000875af1158015610e60573d6000803e3d6000fd5b505050506040513d601f19601f82011682018060405250810190610e849190612323565b90506000600160009054906101000a900473ffffffffffffffffffffffffffffffffffffffff1673ffffffffffffffffffffffffffffffffffffffff1663852a12e3836040518263ffffffff1660e01b8152600401610ee39190612074565b6020604051808303816000875af1158015610f02573d6000803e3d6000fd5b505050506040513d601f19601f82011682018060405250810190610f269190612323565b14610f66576040517f08c379a0000000000000000000000000000000000000000000000000000000008152600401610f5d90612931565b60405180910390fd5b60026000806101000a81548160ff02191690836002811115610f8b57610f8a612262565b5b0217905550505050565b6000600180811115610faa57610fa9612262565b5b600060019054906101000a900460ff166001811115610fcc57610fcb612262565b5b1461107457600560009054906101000a900473ffffffffffffffffffffffffffffffffffffffff1673ffffffffffffffffffffffffffffffffffffffff16633af9e669306040518263ffffffff1660e01b815260040161102c91906120b0565b6020604051808303816000875af115801561104b573d6000803e3d6000fd5b505050506040513d601f19601f8201168201806040525081019061106f9190612323565b611113565b600160009054906101000a900473ffffffffffffffffffffffffffffffffffffffff1673ffffffffffffffffffffffffffffffffffffffff16633af9e669306040518263ffffffff1660e01b81526004016110cf91906120b0565b6020604051808303816000875af11580156110ee573d6000803e3d6000fd5b505050506040513d601f19601f820116820180604052508101906111129190612323565b5b905090565b600060029054906101000a900473ffffffffffffffffffffffffffffffffffffffff1681565b600760009054906101000a900473ffffffffffffffffffffffffffffffffffffffff1681565b600860009054906101000a900473ffffffffffffffffffffffffffffffffffffffff1681565b600160009054906101000a900473ffffffffffffffffffffffffffffffffffffffff1681565b6000600260009054906101000a900473ffffffffffffffffffffffffffffffffffffffff1673ffffffffffffffffffffffffffffffffffffffff1663c5ebeaec836040518263ffffffff1660e01b815260040161120d9190612074565b6020604051808303816000875af115801561122c573d6000803e3d6000fd5b505050506040513d601f19601f820116820180604052508101906112509190612323565b14611290576040517f08c379a00000000000000000000000000000000000000000000000000000000081526004016112879061299d565b60405180910390fd5b6000600360009054906101000a900473ffffffffffffffffffffffffffffffffffffffff1673ffffffffffffffffffffffffffffffffffffffff166370a08231306040518263ffffffff1660e01b81526004016112ed91906120b0565b602060405180830381865afa15801561130a573d6000803e3d6000fd5b505050506040513d601f19601f8201168201806040525081019061132e9190612323565b9050600360009054906101000a900473ffffffffffffffffffffffffffffffffffffffff1673ffffffffffffffffffffffffffffffffffffffff1663095ea7b3737a250d5630b4cf539739df2c5dacb4c659f2488d836040518363ffffffff1660e01b81526004016113a1929190612791565b6020604051808303816000875af11580156113c0573d6000803e3d6000fd5b505050506040513d601f19601f820116820180604052508101906113e491906127f2565b506000600267ffffffffffffffff8111156114025761140161247b565b5b6040519080825280602002602001820160405280156114305781602001602082028036833780820191505090505b509050600360009054906101000a900473ffffffffffffffffffffffffffffffffffffffff168160008151811061146a576114696124aa565b5b602002602001019073ffffffffffffffffffffffffffffffffffffffff16908173ffffffffffffffffffffffffffffffffffffffff1681525050600060018111156114b8576114b7612262565b5b600060019054906101000a900460ff1660018111156114da576114d9612262565b5b036115e65773c02aaa39b223fe8d0a0e5c4f27ead9083c756cc281600181518110611508576115076124aa565b5b602002602001019073ffffffffffffffffffffffffffffffffffffffff16908173ffffffffffffffffffffffffffffffffffffffff1681525050737a250d5630b4cf539739df2c5dacb4c659f2488d73ffffffffffffffffffffffffffffffffffffffff166318cbafe58360018430426040518663ffffffff1660e01b815260040161159895949392919061281f565b6000604051808303816000875af11580156115b7573d6000803e3d6000fd5b505050506040513d6000823e3d601f19601f820116820180604052508101906115e09190612748565b50611732565b6001808111156115f9576115f8612262565b5b600060019054906101000a900460ff16600181111561161b5761161a612262565b5b0361173157600460009054906101000a900473ffffffffffffffffffffffffffffffffffffffff1681600181518110611657576116566124aa565b5b602002602001019073ffffffffffffffffffffffffffffffffffffffff16908173ffffffffffffffffffffffffffffffffffffffff1681525050737a250d5630b4cf539739df2c5dacb4c659f2488d73ffffffffffffffffffffffffffffffffffffffff166338ed17398360018430426040518663ffffffff1660e01b81526004016116e795949392919061281f565b6000604051808303816000875af1158015611706573d6000803e3d6000fd5b505050506040513d6000823e3d601f19601f8201168201806040525081019061172f9190612748565b505b5b505050565b600560009054906101000a900473ffffffffffffffffffffffffffffffffffffffff1681565b600460009054906101000a900473ffffffffffffffffffffffffffffffffffffffff1681565b600080600080600760009054906101000a900473ffffffffffffffffffffffffffffffffffffffff1673ffffffffffffffffffffffffffffffffffffffff16635ec88c79306040518263ffffffff1660e01b81526004016117e491906120b0565b606060405180830381865afa158015611801573d6000803e3d6000fd5b505050506040513d601f19601f8201168201806040525081019061182591906123bc565b9250925092506000831461186e576040517f08c379a00000000000000000000000000000000000000000000000000000000081526004016118659061245b565b60405180910390fd5b600081146118b1576040517f08c379a00000000000000000000000000000000000000000000000000000000081526004016118a890612a09565b60405180910390fd5b600082116118f4576040517f08c379a00000000000000000000000000000000000000000000000000000000081526004016118eb90612a75565b60405180910390fd5b6000600860009054906101000a900473ffffffffffffffffffffffffffffffffffffffff1673ffffffffffffffffffffffffffffffffffffffff1663fc57d4df600260009054906101000a900473ffffffffffffffffffffffffffffffffffffffff166040518263ffffffff1660e01b815260040161197391906120b0565b602060405180830381865afa158015611990573d6000803e3d6000fd5b505050506040513d601f19601f820116820180604052508101906119b49190612323565b9050600081600654600a6119c89190612bf7565b856119d39190612c42565b6119dd9190612ccb565b9050809550505050505090565b6000600260009054906101000a900473ffffffffffffffffffffffffffffffffffffffff1673ffffffffffffffffffffffffffffffffffffffff166317bfdfbc306040518263ffffffff1660e01b8152600401611a4791906120b0565b6020604051808303816000875af1158015611a66573d6000803e3d6000fd5b505050506040513d601f19601f82011682018060405250810190611a8a9190612323565b905090565b3373ffffffffffffffffffffffffffffffffffffffff16600060029054906101000a900473ffffffffffffffffffffffffffffffffffffffff1673ffffffffffffffffffffffffffffffffffffffff1614611b1f576040517f08c379a0000000000000000000000000000000000000000000000000000000008152600401611b1690612d48565b60405180910390fd5b60016002811115611b3357611b32612262565b5b60008054906101000a900460ff166002811115611b5357611b52612262565b5b03611b93576040517f08c379a0000000000000000000000000000000000000000000000000000000008152600401611b8a90612d48565b60405180910390fd5b83600460006101000a81548173ffffffffffffffffffffffffffffffffffffffff021916908373ffffffffffffffffffffffffffffffffffffffff16021790555084600160006101000a81548173ffffffffffffffffffffffffffffffffffffffff021916908373ffffffffffffffffffffffffffffffffffffffff16021790555082600260006101000a81548173ffffffffffffffffffffffffffffffffffffffff021916908373ffffffffffffffffffffffffffffffffffffffff16021790555081600360006101000a81548173ffffffffffffffffffffffffffffffffffffffff021916908373ffffffffffffffffffffffffffffffffffffffff1602179055508060068190555060016000806101000a81548160ff02191690836002811115611cc357611cc2612262565b5b0217905550600073ffffffffffffffffffffffffffffffffffffffff168473ffffffffffffffffffffffffffffffffffffffff1603611d2c576001600060016101000a81548160ff02191690836001811115611d2257611d21612262565b5b0217905550611d57565b60008060016101000a81548160ff02191690836001811115611d5157611d50612262565b5b02179055505b5050505050565b600260009054906101000a900473ffffffffffffffffffffffffffffffffffffffff1681565b6000600167ffffffffffffffff811115611da157611da061247b565b5b604051908082528060200260200182016040528015611dcf5781602001602082028036833780820191505090505b5090508181600081518110611de757611de66124aa565b5b602002602001019073ffffffffffffffffffffffffffffffffffffffff16908173ffffffffffffffffffffffffffffffffffffffff16815250506000600760009054906101000a900473ffffffffffffffffffffffffffffffffffffffff1673ffffffffffffffffffffffffffffffffffffffff1663c2998238836040518263ffffffff1660e01b8152600401611e7e9190612d68565b6000604051808303816000875af1158015611e9d573d6000803e3d6000fd5b505050506040513d6000823e3d601f19601f82011682018060405250810190611ec69190612748565b9050600081600081518110611ede57611edd6124aa565b5b602002602001015114611f26576040517f08c379a0000000000000000000000000000000000000000000000000000000008152600401611f1d90612dd6565b60405180910390fd5b505050565b6000604051905090565b600080fd5b600080fd5b6000819050919050565b611f5281611f3f565b8114611f5d57600080fd5b50565b600081359050611f6f81611f49565b92915050565b600060208284031215611f8b57611f8a611f35565b5b6000611f9984828501611f60565b91505092915050565b600073ffffffffffffffffffffffffffffffffffffffff82169050919050565b6000819050919050565b6000611fe7611fe2611fdd84611fa2565b611fc2565b611fa2565b9050919050565b6000611ff982611fcc565b9050919050565b600061200b82611fee565b9050919050565b61201b81612000565b82525050565b60006020820190506120366000830184612012565b92915050565b61204581611f3f565b82525050565b6000604082019050612060600083018561203c565b61206d602083018461203c565b9392505050565b6000602082019050612089600083018461203c565b92915050565b600061209a82611fa2565b9050919050565b6120aa8161208f565b82525050565b60006020820190506120c560008301846120a1565b92915050565b60006120d682611fee565b9050919050565b6120e6816120cb565b82525050565b600060208201905061210160008301846120dd565b92915050565b600061211282611fee565b9050919050565b61212281612107565b82525050565b600060208201905061213d6000830184612119565b92915050565b600061214e82611fee565b9050919050565b61215e81612143565b82525050565b60006020820190506121796000830184612155565b92915050565b600061218a82611fee565b9050919050565b61219a8161217f565b82525050565b60006020820190506121b56000830184612191565b92915050565b6121c48161208f565b81146121cf57600080fd5b50565b6000813590506121e1816121bb565b92915050565b600080600080600060a0868803121561220357612202611f35565b5b6000612211888289016121d2565b9550506020612222888289016121d2565b9450506040612233888289016121d2565b9350506060612244888289016121d2565b925050608061225588828901611f60565b9150509295509295909350565b7f4e487b7100000000000000000000000000000000000000000000000000000000600052602160045260246000fd5b600082825260208201905092915050565b7f4e6f7420456c696769626c6520666f7220546f6b656e20737570706c79000000600082015250565b60006122d8601d83612291565b91506122e3826122a2565b602082019050919050565b60006020820190508181036000830152612307816122cb565b9050919050565b60008151905061231d81611f49565b92915050565b60006020828403121561233957612338611f35565b5b60006123478482850161230e565b91505092915050565b7f4e6f7420456c696769626c6520666f722045746820737570706c790000000000600082015250565b6000612386601b83612291565b915061239182612350565b602082019050919050565b600060208201905081810360008301526123b581612379565b9050919050565b6000806000606084860312156123d5576123d4611f35565b5b60006123e38682870161230e565b93505060206123f48682870161230e565b92505060406124058682870161230e565b9150509250925092565b7f6572726f72000000000000000000000000000000000000000000000000000000600082015250565b6000612445600583612291565b91506124508261240f565b602082019050919050565b6000602082019050818103600083015261247481612438565b9050919050565b7f4e487b7100000000000000000000000000000000000000000000000000000000600052604160045260246000fd5b7f4e487b7100000000000000000000000000000000000000000000000000000000600052603260045260246000fd5b6000819050919050565b60006124fe6124f96124f4846124d9565b611fc2565b611f3f565b9050919050565b61250e816124e3565b82525050565b600081519050919050565b600082825260208201905092915050565b6000819050602082019050919050565b6125498161208f565b82525050565b600061255b8383612540565b60208301905092915050565b6000602082019050919050565b600061257f82612514565b612589818561251f565b935061259483612530565b8060005b838110156125c55781516125ac888261254f565b97506125b783612567565b925050600181019050612598565b5085935050505092915050565b60006080820190506125e76000830187612505565b81810360208301526125f98186612574565b905061260860408301856120a1565b612615606083018461203c565b95945050505050565b600080fd5b6000601f19601f8301169050919050565b61263d82612623565b810181811067ffffffffffffffff8211171561265c5761265b61247b565b5b80604052505050565b600061266f611f2b565b905061267b8282612634565b919050565b600067ffffffffffffffff82111561269b5761269a61247b565b5b602082029050602081019050919050565b600080fd5b60006126c46126bf84612680565b612665565b905080838252602082019050602084028301858111156126e7576126e66126ac565b5b835b8181101561271057806126fc888261230e565b8452602084019350506020810190506126e9565b5050509392505050565b600082601f83011261272f5761272e61261e565b5b815161273f8482602086016126b1565b91505092915050565b60006020828403121561275e5761275d611f35565b5b600082015167ffffffffffffffff81111561277c5761277b611f3a565b5b6127888482850161271a565b91505092915050565b60006040820190506127a660008301856120a1565b6127b3602083018461203c565b9392505050565b60008115159050919050565b6127cf816127ba565b81146127da57600080fd5b50565b6000815190506127ec816127c6565b92915050565b60006020828403121561280857612807611f35565b5b6000612816848285016127dd565b91505092915050565b600060a082019050612834600083018861203c565b6128416020830187612505565b81810360408301526128538186612574565b905061286260608301856120a1565b61286f608083018461203c565b9695505050505050565b7f7265706179206661696c65640000000000000000000000000000000000000000600082015250565b60006128af600c83612291565b91506128ba82612879565b602082019050919050565b600060208201905081810360008301526128de816128a2565b9050919050565b7f72656465656d206661696c656400000000000000000000000000000000000000600082015250565b600061291b600d83612291565b9150612926826128e5565b602082019050919050565b6000602082019050818103600083015261294a8161290e565b9050919050565b7f626f72726f77206661696c656400000000000000000000000000000000000000600082015250565b6000612987600d83612291565b915061299282612951565b602082019050919050565b600060208201905081810360008301526129b68161297a565b9050919050565b7f73686f727466616c6c203e203000000000000000000000000000000000000000600082015250565b60006129f3600d83612291565b91506129fe826129bd565b602082019050919050565b60006020820190508181036000830152612a22816129e6565b9050919050565b7f6c6971756964697479203d203000000000000000000000000000000000000000600082015250565b6000612a5f600d83612291565b9150612a6a82612a29565b602082019050919050565b60006020820190508181036000830152612a8e81612a52565b9050919050565b7f4e487b7100000000000000000000000000000000000000000000000000000000600052601160045260246000fd5b60008160011c9050919050565b6000808291508390505b6001851115612b1b57808604811115612af757612af6612a95565b5b6001851615612b065780820291505b8081029050612b1485612ac4565b9450612adb565b94509492505050565b600082612b345760019050612bf0565b81612b425760009050612bf0565b8160018114612b585760028114612b6257612b91565b6001915050612bf0565b60ff841115612b7457612b73612a95565b5b8360020a915084821115612b8b57612b8a612a95565b5b50612bf0565b5060208310610133831016604e8410600b8410161715612bc65782820a905083811115612bc157612bc0612a95565b5b612bf0565b612bd38484846001612ad1565b92509050818404811115612bea57612be9612a95565b5b81810290505b9392505050565b6000612c0282611f3f565b9150612c0d83611f3f565b9250612c3a7fffffffffffffffffffffffffffffffffffffffffffffffffffffffffffffffff8484612b24565b905092915050565b6000612c4d82611f3f565b9150612c5883611f3f565b9250817fffffffffffffffffffffffffffffffffffffffffffffffffffffffffffffffff0483118215151615612c9157612c90612a95565b5b828202905092915050565b7f4e487b7100000000000000000000000000000000000000000000000000000000600052601260045260246000fd5b6000612cd682611f3f565b9150612ce183611f3f565b925082612cf157612cf0612c9c565b5b828204905092915050565b7f4f6e6c79204d616e616765722063616e20616363657373200000000000000000600082015250565b6000612d32601883612291565b9150612d3d82612cfc565b602082019050919050565b60006020820190508181036000830152612d6181612d25565b9050919050565b60006020820190508181036000830152612d828184612574565b905092915050565b7f436f6d7074726f6c6c65722e656e7465724d61726b657473206661696c65642e600082015250565b6000612dc0602083612291565b9150612dcb82612d8a565b602082019050919050565b60006020820190508181036000830152612def81612db3565b905091905056fea2646970667358221220b2fb655e80e9241aef41448e5e47c34e50ee250493155ece0360f4d05d86f56164736f6c63430008100033",
  "immutableReferences": {},
  "source": "// SPDX-License-Identifier: MIT\r\npragma solidity >=0.7.0;\r\n\r\nimport \"@openzeppelin/contracts/token/ERC20/IERC20.sol\";\r\nimport \"./Interfaces/CAsset.sol\";\r\nimport \"./Interfaces/Comptroller.sol\";\r\nimport \"./Interfaces/Uniswap.sol\";\r\n\r\n//longing in Token with borrowing DAI from compound ,and then exchanging DAI with WETH .\r\n\r\ncontract CompoundLonging {\r\n\r\n enum SupplyAsset {Eth, Token}\r\n enum State {Idle,Running, Finished}\r\n\r\n  State currentPhase;\r\n  SupplyAsset assetType;\r\n\r\n  address public manager;\r\n   CErc20 public cTokenSupply;   //cEth or CTokenSupply\r\n   CErc20 public cTokenBorrow;\r\n   IERC20 public tokenBorrow;\r\n   IERC20 public TokenSupply;    // not required on cEth ( transfering )\r\n   CEth public cEth ;\r\n   uint public decimals;\r\n\r\n   Comptroller public comptroller = Comptroller(0x3d9819210A31b4961b30EF54bE2aeD79B9c9Cd3B);\r\n\r\n   PriceFeed public priceFeed = PriceFeed(0x922018674c12a7F0D394ebEEf9B58F186CdE13c1);\r\n   IUniswapV2Router private constant UNI = IUniswapV2Router(0x7a250d5630B4cF539739dF2C5dAcb4c659F2488D);\r\n   IERC20 private constant WETH = IERC20(0xC02aaA39b223FE8D0A0e5C4F27eAD9083C756Cc2);\r\n\r\n\r\n    modifier onlyManager{\r\n      require(manager == msg.sender,\"Only Manager can access \");\r\n      _;\r\n    }\r\n\r\n    modifier checkPhase{\r\n      require(currentPhase !=State.Running,\"Only Manager can access \");\r\n      _;\r\n    }\r\n\r\n      constructor(){\r\n        manager= msg.sender;\r\n      }\r\n\r\n     receive() external payable {}\r\n\r\n\r\n     function initialize(address _cTokenToSupply,\r\n    address _TokenToSupply,\r\n    address _cTokenBorrow,\r\n    address _tokenBorrow,\r\n    uint _decimals\r\n     ) onlyManager checkPhase external {\r\n\r\n      TokenSupply = IERC20(_TokenToSupply);\r\n    cTokenSupply = CErc20(_cTokenToSupply);\r\n    cTokenBorrow = CErc20(_cTokenBorrow);\r\n    tokenBorrow = IERC20(_tokenBorrow);\r\n    decimals = _decimals;\r\n    currentPhase = State.Running;\r\n\r\n      if(_TokenToSupply == address(0)){\r\n        assetType= SupplyAsset.Token;\r\n      }\r\n      else \r\n          assetType= SupplyAsset.Eth;\r\n     }\r\n\r\n\r\n\r\n    function supplyEth() external payable {\r\n       require(assetType != SupplyAsset.Token, \"Not Eligible for Eth supply\");\r\n            cEth.mint{value : msg.value};\r\n            enterMarket(address(cEth));   \r\n   }\r\n\r\n\r\n    function supplyToken( uint _amount) external  {\r\n         require(assetType==SupplyAsset.Token,\"Not Eligible for Token supply\");\r\n        cTokenSupply.mint(_amount);\r\n         enterMarket(address(cTokenSupply)); \r\n   }\r\n\r\n   function enterMarket (address  cAsset) internal {\r\n     address[] memory cTokens = new address[](1);\r\n        cTokens[0] = address(cAsset);\r\n        uint[] memory errors = comptroller.enterMarkets(cTokens);\r\n        require(errors[0] == 0, \"Comptroller.enterMarkets failed.\");\r\n\r\n   }\r\n\r\n  function getMaxBorrow() external view returns (uint)\r\n   {\r\n    (uint error, uint liquidity, uint shortfall) = comptroller.getAccountLiquidity( address(this));\r\n\r\n    require(error == 0, \"error\");\r\n    require(shortfall == 0, \"shortfall > 0\");\r\n    require(liquidity > 0, \"liquidity = 0\");\r\n\r\n    uint price = priceFeed.getUnderlyingPrice(address(cTokenBorrow));\r\n    uint maxBorrow = (liquidity * (10**decimals)) / price;\r\n\r\n    return maxBorrow;\r\n\r\n  }\r\n\r\n\r\n  function long( uint _borrowAmount) external {\r\n\r\n    //  AssetLonging memory assetlong = Registry[_assetToSupply][_assetToBorrow];\r\n    //   require(assetlong.assetType != supplyAsset.Eth, \"Not Eligible for Token supply\");\r\n\r\n    // borrow\r\n    require(cTokenBorrow.borrow(_borrowAmount) == 0, \"borrow failed\");\r\n    // buy ETH\r\n    uint bal = tokenBorrow.balanceOf(address(this));\r\n    tokenBorrow.approve(address(UNI), bal);\r\n\r\n    address[] memory path = new address[](2);\r\n    path[0] = address(tokenBorrow);\r\n    if(assetType==SupplyAsset.Eth)\r\n    {\r\n         path[1] = address(WETH);\r\n        UNI.swapExactTokensForETH(bal, 1, path, address(this), block.timestamp);\r\n    }\r\n    else if(assetType==SupplyAsset.Token )\r\n    {\r\n      path[1] = address(TokenSupply);\r\n      UNI.swapExactTokensForTokens(bal, 1, path, address(this), block.timestamp);\r\n    }\r\n     \r\n  }\r\n\r\n\r\n\r\n  function repay() external {\r\n    // sell ETH\r\n\r\n    //  AssetLonging memory assetlong = Registry[_assetToSupply][_assetToBorrow];\r\n     \r\n    address[] memory path = new address[](2);\r\n     path[1] = address(tokenBorrow);\r\n\r\n     if(assetType==SupplyAsset.Eth)\r\n     {\r\n       path[0] = address(WETH);\r\n        UNI.swapExactETHForTokens{value: address(this).balance}(\r\n      1,\r\n      path,\r\n      address(this),\r\n      block.timestamp\r\n    );\r\n     }\r\n     else if (assetType==SupplyAsset.Token )\r\n     {\r\n        path[0] = address(TokenSupply);\r\n        uint bal = TokenSupply.balanceOf(address(this));\r\n        TokenSupply.approve(address(UNI), bal);\r\n          UNI.swapExactTokensForTokens(bal,\r\n      1,\r\n      path,\r\n      address(this),\r\n      block.timestamp\r\n    );\r\n\r\n     }\r\n    \r\n    // repay borrow\r\n    uint borrowed = cTokenBorrow.borrowBalanceCurrent(address(this));\r\n    tokenBorrow.approve(address(cTokenBorrow), borrowed);\r\n    require(cTokenBorrow.repayBorrow(borrowed) == 0, \"repay failed\");\r\n\r\n    uint supplied = cTokenSupply.balanceOfUnderlying(address(this));\r\n    require(cTokenSupply.redeemUnderlying(supplied) == 0, \"redeem failed\");\r\n\r\n    currentPhase = State.Finished;\r\n\r\n    // supplied ETH + supplied interest + profit (in token borrow)\r\n  }\r\n\r\n  // not view function\r\n  function getSuppliedBalance() external returns (uint) {\r\n   return  assetType==SupplyAsset.Token ? \r\n   cTokenSupply.balanceOfUnderlying(address(this)): cEth.balanceOfUnderlying(address(this));\r\n  }\r\n\r\n  // not view function\r\n  function getBorrowBalance() external returns (uint) {\r\n    return cTokenBorrow.borrowBalanceCurrent(address(this));\r\n  }\r\n\r\n  function getAccountLiquidity()\r\n    external\r\n    view\r\n    returns (uint liquidity, uint shortfall)\r\n  {\r\n    // liquidity and shortfall in USD scaled up by 1e18\r\n    (uint error, uint _liquidity, uint _shortfall) = comptroller.getAccountLiquidity(\r\n      address(this)\r\n    );\r\n    require(error == 0, \"error\");\r\n    return (_liquidity, _shortfall);\r\n  }\r\n}\r\n\r\n\r\n",
  "sourcePath": "C:\\Users\\aryan\\MyVSWorkspace\\Defi_Compound_Long_and_Short\\contracts\\CompoundTokenLong.sol",
  "compiler": {
    "name": "solc",
    "version": "0.8.16+commit.07a7930e.Emscripten.clang"
  },
  "schemaVersion": "3.4.9",
  "updatedAt": "2022-08-24T09:59:53.844Z",
  "devdoc": {
    "kind": "dev",
    "methods": {},
    "version": 1
  },
  "userdoc": {
    "kind": "user",
    "methods": {},
    "version": 1
  }
}